:100000000C945C000C946E000C946E000C946E00CA
:100010000C946E000C946E000C946E000C946E00A8
:100020000C946E000C946E000C946E000C946E0098
:100030000C946E000C946E000C946E000C946E0088
:100040000C9400010C946E000C946E000C946E00E5
:100050000C946E000C946E000C946E000C946E0068
:100060000C946E000C946E0000000007000201006A
:100070000003040600000000000000000000000073
:10008000250028002B0000000000240027002A0083
:10009000040404040404040402020202020203032E
:1000A0000303030301020408102040800102040836
:1000B000102001020408102011241FBECFEFD8E049
:1000C000DEBFCDBF21E0A0E0B1E001C01D92A930AC
:1000D000B207E1F70E944A010C94FA010C94000067
:1000E00090E0FC01EC55FF4F2491FC01E057FF4FDD
:1000F0008491882399F090E0880F991FFC01EA57BA
:10010000FF4FA591B491FC01E458FF4F8591949164
:100110008FB7F894EC91E22BEC938FBF089590E0A9
:10012000FC01E859FF4F3491FC01EC55FF4F24913D
:10013000FC01E057FF4FE491EE2309F43BC0332369
:1001400039F1333091F038F43130A9F0323001F523
:1001500084B58F7D12C0363091F03730A1F0343045
:10016000B9F4809180008F7D03C0809180008F77EB
:10017000809380000DC084B58F7784BD09C08091C5
:10018000B0008F7703C08091B0008F7D8093B00066
:10019000F0E0EE0FFF1FE458FF4FA591B4918FB729
:1001A000F894EC91611103C020952E2301C02E2BF1
:1001B0002C938FBF08953FB7F894809105019091DB
:1001C0000601A0910701B091080126B5A89B05C0C2
:1001D0002F3F19F00196A11DB11D3FBFBA2FA92FC6
:1001E000982F8827820F911DA11DB11DBC01CD0143
:1001F00042E0660F771F881F991F4A95D1F708952F
:100200001F920F920FB60F9211242F933F938F934B
:100210009F93AF93BF938091010190910201A091B0
:100220000301B09104013091000123E0230F2D3729
:1002300020F40196A11DB11D05C026E8230F0296EA
:10024000A11DB11D20930001809301019093020133
:10025000A0930301B09304018091050190910601E0
:10026000A0910701B09108010196A11DB11D8093D5
:10027000050190930601A0930701B0930801BF9177
:10028000AF919F918F913F912F910F900FBE0F9043
:100290001F901895789484B5826084BD84B5816080
:1002A00084BD85B5826085BD85B5816085BD809141
:1002B0006E00816080936E001092810080918100B9
:1002C00082608093810080918100816080938100B1
:1002D000809180008160809380008091B100846073
:1002E0008093B1008091B00081608093B0008091D4
:1002F0007A00846080937A0080917A008260809393
:100300007A0080917A00816080937A0080917A00EF
:10031000806880937A001092C10083E00E94700090
:100320000BE610E080E0E82E80E0F82EC0E0D0E0A0
:1003300083E00E947000209711F460E042C0F80151
:1003400084918330F9F048F48130B9F08230A1F51E
:1003500084B5806284BDC8BD37C08630E9F087307F
:1003600019F1843049F5809180008062809380008B
:10037000D0938B00C0938A0027C084B5806884BD69
:10038000C7BD22C080918000806880938000D09398
:100390008900C093880018C08091B0008068809365
:1003A000B000C093B30010C08091B0008062809311
:1003B000B000C093B40008C0C038D1050CF4BDCF64
:1003C00061E083E00E948F000E94DB006B010E94CD
:1003D000DB006C197D09683E7340C8F32196CF3F5E
:1003E000D10509F0A5CFE114F10409F49FCF0E94D3
:0E03F00000009CCFF8940C94FD01F894FFCF10
:00000001FF
